{
  "contractName": "Ballot",
  "abi": [
    {
      "constant": true,
      "inputs": [
        {
          "name": "",
          "type": "uint256"
        }
      ],
      "name": "proposals",
      "outputs": [
        {
          "name": "name",
          "type": "bytes32"
        },
        {
          "name": "voteCount",
          "type": "uint256"
        }
      ],
      "payable": false,
      "stateMutability": "view",
      "type": "function"
    },
    {
      "constant": true,
      "inputs": [
        {
          "name": "",
          "type": "address"
        }
      ],
      "name": "voters",
      "outputs": [
        {
          "name": "canVote",
          "type": "bool"
        },
        {
          "name": "voted",
          "type": "bool"
        },
        {
          "name": "vote",
          "type": "uint256"
        }
      ],
      "payable": false,
      "stateMutability": "view",
      "type": "function"
    },
    {
      "constant": true,
      "inputs": [],
      "name": "voterReviewer",
      "outputs": [
        {
          "name": "",
          "type": "address"
        }
      ],
      "payable": false,
      "stateMutability": "view",
      "type": "function"
    },
    {
      "inputs": [
        {
          "name": "proposalNames",
          "type": "bytes32[]"
        }
      ],
      "payable": false,
      "stateMutability": "nonpayable",
      "type": "constructor"
    },
    {
      "constant": false,
      "inputs": [
        {
          "name": "voter",
          "type": "address"
        }
      ],
      "name": "giveRightToVote",
      "outputs": [],
      "payable": false,
      "stateMutability": "nonpayable",
      "type": "function"
    },
    {
      "constant": false,
      "inputs": [
        {
          "name": "proposal",
          "type": "uint256"
        }
      ],
      "name": "vote",
      "outputs": [],
      "payable": false,
      "stateMutability": "nonpayable",
      "type": "function"
    },
    {
      "constant": true,
      "inputs": [],
      "name": "winningProposal",
      "outputs": [
        {
          "name": "winningProposal_",
          "type": "uint256"
        }
      ],
      "payable": false,
      "stateMutability": "view",
      "type": "function"
    },
    {
      "constant": true,
      "inputs": [],
      "name": "winnerName",
      "outputs": [
        {
          "name": "winnerName_",
          "type": "bytes32"
        }
      ],
      "payable": false,
      "stateMutability": "view",
      "type": "function"
    }
  ],
  "bytecode": "0x608060405234801561001057600080fd5b5060405161088d38038061088d8339810180604052602081101561003357600080fd5b81019080805164010000000081111561004b57600080fd5b8281019050602081018481111561006157600080fd5b815185602082028301116401000000008211171561007e57600080fd5b5050929190505050336000806101000a81548173ffffffffffffffffffffffffffffffffffffffff021916908373ffffffffffffffffffffffffffffffffffffffff16021790555060008090505b815181101561014f57600260405180604001604052808484815181106100ee57fe5b60200260200101518152602001600081525090806001815401808255809150509060018203906000526020600020906002020160009091929091909150600082015181600001556020820151816001015550505080806001019150506100cc565b505061072d806101606000396000f3fe608060405234801561001057600080fd5b506004361061007d5760003560e01c80639e7b8d611161005b5780639e7b8d6114610117578063a3ec138d1461015b578063a3ecab54146101c9578063e2ba53f0146102135761007d565b80630121b93f14610082578063013cf08b146100b0578063609ff1bd146100f9575b600080fd5b6100ae6004803603602081101561009857600080fd5b8101908080359060200190929190505050610231565b005b6100dc600480360360208110156100c657600080fd5b81019080803590602001909291905050506103d4565b604051808381526020018281526020019250505060405180910390f35b610101610405565b6040518082815260200191505060405180910390f35b6101596004803603602081101561012d57600080fd5b81019080803573ffffffffffffffffffffffffffffffffffffffff16906020019092919050505061047c565b005b61019d6004803603602081101561017157600080fd5b81019080803573ffffffffffffffffffffffffffffffffffffffff169060200190929190505050610641565b604051808415151515815260200183151515158152602001828152602001935050505060405180910390f35b6101d1610685565b604051808273ffffffffffffffffffffffffffffffffffffffff1673ffffffffffffffffffffffffffffffffffffffff16815260200191505060405180910390f35b61021b6106aa565b6040518082815260200191505060405180910390f35b6000600160003373ffffffffffffffffffffffffffffffffffffffff1673ffffffffffffffffffffffffffffffffffffffff16815260200190815260200160002090508060000160009054906101000a900460ff166102f8576040517f08c379a00000000000000000000000000000000000000000000000000000000081526004018080602001828103825260148152602001807f486173206e6f20726967687420746f20766f746500000000000000000000000081525060200191505060405180910390fd5b8060000160019054906101000a900460ff161561037d576040517f08c379a000000000000000000000000000000000000000000000000000000000815260040180806020018281038252600d8152602001807f416c726561647920766f7465640000000000000000000000000000000000000081525060200191505060405180910390fd5b60018160000160016101000a81548160ff0219169083151502179055508181600101819055506001600283815481106103b257fe5b9060005260206000209060020201600101600082825401925050819055505050565b600281815481106103e157fe5b90600052602060002090600202016000915090508060000154908060010154905082565b6000806000905060008090505b60028054905081101561047757816002828154811061042d57fe5b906000526020600020906002020160010154111561046a576002818154811061045257fe5b90600052602060002090600202016001015491508092505b8080600101915050610412565b505090565b6000809054906101000a900473ffffffffffffffffffffffffffffffffffffffff1673ffffffffffffffffffffffffffffffffffffffff163373ffffffffffffffffffffffffffffffffffffffff1614610521576040517f08c379a000000000000000000000000000000000000000000000000000000000815260040180806020018281038252602a8152602001806106d8602a913960400191505060405180910390fd5b600160008273ffffffffffffffffffffffffffffffffffffffff1673ffffffffffffffffffffffffffffffffffffffff16815260200190815260200160002060000160019054906101000a900460ff16156105e4576040517f08c379a00000000000000000000000000000000000000000000000000000000081526004018080602001828103825260188152602001807f54686520766f74657220616c726561647920766f7465642e000000000000000081525060200191505060405180910390fd5b60018060008373ffffffffffffffffffffffffffffffffffffffff1673ffffffffffffffffffffffffffffffffffffffff16815260200190815260200160002060000160006101000a81548160ff02191690831515021790555050565b60016020528060005260406000206000915090508060000160009054906101000a900460ff16908060000160019054906101000a900460ff16908060010154905083565b6000809054906101000a900473ffffffffffffffffffffffffffffffffffffffff1681565b600060026106b6610405565b815481106106c057fe5b90600052602060002090600202016000015490509056fe4f6e6c7920766f74657252657669657765722063616e206769766520726967687420746f20766f74652ea165627a7a72305820ab98ef602e9547a3b6b4a345d34ca8b62677efb2d0b30fd987f923f48a778adc0029",
  "source": "pragma solidity >=0.4.21 <0.6.0;\n\ncontract Ballot {\n    struct Voter {\n        bool canVote; // if true, the voter can vote\n        bool voted; // if true, the person already voted\n        uint vote; // index of the voted proposal\n    }\n\n    struct Proposal {\n        bytes32 name; // short name (up to 32 bytes), *** Will change to ipfs hash containing profile details ***\n        uint voteCount; // number or accumulate votes\n    }\n\n    address public voterReviewer; // give the right to vote to each address individually, *** it will be an array in future ***\n\n    // This declares a state variable that\n    // stores a `Voter` struct for each possible address.\n    mapping(address => Voter) public voters;\n\n    // A dynamically-sized array of `Proposal` structs.\n    Proposal[] public proposals;\n\n    /// Create a new ballot to choose one of `proposalNames`.\n\n    // *** Now we are sending array of proposal to constructor, in future proposal can be added without constructor ***\n    constructor(bytes32[] memory proposalNames) public {\n        voterReviewer = msg.sender;\n\n        // For each of the provided proposal names,\n        // create a new proposal object and add it\n        // to the end of the array.\n\n        for (uint i = 0; i < proposalNames.length; i++) {\n            // `Proposal({...})` creates a temporary\n            // Proposal object and `proposals.push(...)`\n            // appends it to the end of `proposals`.\n\n            proposals.push(Proposal({\n                name: proposalNames[i],\n                voteCount: 0\n            }));\n\n        }\n    }\n\n       // Give `voter` the right to vote on this ballot.\n    // May only be called by `chairperson`.\n    function giveRightToVote(address voter) public {\n        // If the first argument of `require` evaluates\n        // to `false`, execution terminates and all\n        // changes to the state and to Ether balances\n        // are reverted.\n        // This used to consume all gas in old EVM versions, but\n        // not anymore.\n        // It is often a good idea to use `require` to check if\n        // functions are called correctly.\n        // As a second argument, you can also provide an\n        // explanation about what went wrong.\n        require(\n            msg.sender == voterReviewer,\n            \"Only voterReviewer can give right to vote.\"\n        );\n        require(\n            !voters[voter].voted,\n            \"The voter already voted.\"\n        );\n        voters[voter].canVote = true;\n    }\n\n    function vote(uint proposal) public {\n        Voter storage sender = voters[msg.sender];\n        require(sender.canVote, \"Has no right to vote\");\n        require(!sender.voted, \"Already voted\");\n        sender.voted = true;\n        sender.vote = proposal;\n        proposals[proposal].voteCount += 1;\n\n    }\n\n    // *** Here it returns a single winner, have to refactor for multiple winnners ***\n    function winningProposal() public view returns (uint winningProposal_) {\n        uint winningVoteCount = 0;\n        for (uint p = 0; p < proposals.length; p++) {\n            if (proposals[p].voteCount > winningVoteCount) {\n                winningVoteCount = proposals[p].voteCount;\n                winningProposal_ = p;\n            }\n        }\n    }\n\n    function winnerName() public view\n            returns (bytes32 winnerName_)\n    {\n        winnerName_ = proposals[winningProposal()].name;\n    }\n\n\n    }\n\n\n\n",
  "sourcePath": "/home/amiya/Documents/workspace/truffleprojects/fairDemocracyProject/contracts/Ballot.sol",
  "compiler": {
    "name": "solc",
    "version": "0.5.8+commit.23d335f2.Emscripten.clang"
  },
  "schemaVersion": "3.0.17",
  "updatedAt": "2019-11-09T16:34:00.073Z",
  "networkType": "ethereum",
  "devdoc": {
    "methods": {}
  },
  "userdoc": {
    "methods": {
      "constructor": "Create a new ballot to choose one of `proposalNames`."
    }
  }
}