{
  "contractName": "BytesToScore",
  "abi": [
    {
      "constant": true,
      "inputs": [],
      "name": "votedata",
      "outputs": [
        {
          "internalType": "bytes",
          "name": "",
          "type": "bytes"
        }
      ],
      "payable": false,
      "stateMutability": "view",
      "type": "function"
    },
    {
      "constant": false,
      "inputs": [
        {
          "internalType": "bytes",
          "name": "_votedata",
          "type": "bytes"
        }
      ],
      "name": "insertVotedata",
      "outputs": [],
      "payable": false,
      "stateMutability": "nonpayable",
      "type": "function"
    },
    {
      "constant": true,
      "inputs": [
        {
          "internalType": "uint256",
          "name": "_index",
          "type": "uint256"
        }
      ],
      "name": "getVotedata",
      "outputs": [
        {
          "internalType": "uint8",
          "name": "",
          "type": "uint8"
        }
      ],
      "payable": false,
      "stateMutability": "view",
      "type": "function"
    },
    {
      "constant": true,
      "inputs": [
        {
          "internalType": "uint256",
          "name": "_index",
          "type": "uint256"
        }
      ],
      "name": "getIndexdata",
      "outputs": [
        {
          "internalType": "bytes1",
          "name": "",
          "type": "bytes1"
        }
      ],
      "payable": false,
      "stateMutability": "view",
      "type": "function"
    }
  ],
  "bytecode": "0x608060405234801561001057600080fd5b50610596806100206000396000f3fe608060405234801561001057600080fd5b506004361061004c5760003560e01c80630fe5d16a1461005157806368ce76181461006f578063a1bb16001461008b578063d9993ec4146100bb575b600080fd5b6100596100eb565b604051610066919061045c565b60405180910390f35b6100896004803603610084919081019061037c565b610189565b005b6100a560048036036100a091908101906103c1565b61019f565b6040516100b2919061047e565b60405180910390f35b6100d560048036036100d091908101906103c1565b61020d565b6040516100e29190610441565b60405180910390f35b60008054600181600116156101000203166002900480601f0160208091040260200160405190810160405280929190818152602001828054600181600116156101000203166002900480156101815780601f1061015657610100808354040283529160200191610181565b820191906000526020600020905b81548152906001019060200180831161016457829003601f168201915b505050505081565b81816000919061019a929190610278565b505050565b600080828154600181600116156101000203166002900481106101be57fe5b8154600116156101dd5790600052602060002090602091828204019190065b9054901a7f01000000000000000000000000000000000000000000000000000000000000000260f81c9050919050565b6000808281546001816001161561010002031660029004811061022c57fe5b81546001161561024b5790600052602060002090602091828204019190065b9054901a7f0100000000000000000000000000000000000000000000000000000000000000029050919050565b828054600181600116156101000203166002900490600052602060002090601f016020900481019282601f106102b957803560ff19168380011785556102e7565b828001600101855582156102e7579182015b828111156102e65782358255916020019190600101906102cb565b5b5090506102f491906102f8565b5090565b61031a91905b808211156103165760008160009055506001016102fe565b5090565b90565b60008083601f84011261032f57600080fd5b8235905067ffffffffffffffff81111561034857600080fd5b60208301915083600182028301111561036057600080fd5b9250929050565b6000813590506103768161053c565b92915050565b6000806020838503121561038f57600080fd5b600083013567ffffffffffffffff8111156103a957600080fd5b6103b58582860161031d565b92509250509250929050565b6000602082840312156103d357600080fd5b60006103e184828501610367565b91505092915050565b6103f3816104b5565b82525050565b600061040482610499565b61040e81856104a4565b935061041e8185602086016104f8565b6104278161052b565b840191505092915050565b61043b816104eb565b82525050565b600060208201905061045660008301846103ea565b92915050565b6000602082019050818103600083015261047681846103f9565b905092915050565b60006020820190506104936000830184610432565b92915050565b600081519050919050565b600082825260208201905092915050565b60007fff0000000000000000000000000000000000000000000000000000000000000082169050919050565b6000819050919050565b600060ff82169050919050565b60005b838110156105165780820151818401526020810190506104fb565b83811115610525576000848401525b50505050565b6000601f19601f8301169050919050565b610545816104e1565b811461055057600080fd5b5056fea365627a7a72315820b984f95b1ea6ff02f86c40efbe17b49ad714f3d83f09b770023595898caa82b86c6578706572696d656e74616cf564736f6c634300050c0040",
  "source": "pragma solidity >=0.4.22 <0.7.0;\npragma experimental ABIEncoderV2;\n\ncontract BytesToScore {\n    \n    bytes public votedata;\n    \n    function insertVotedata(bytes calldata  _votedata) external {\n        votedata = _votedata;\n    }\n    \n    function getVotedata(uint _index) external view returns (uint8) {\n        \n        return uint8(votedata[_index]);\n        \n    }\n    \n     function getIndexdata(uint _index) external view returns (bytes1) {\n        \n        return votedata[_index];\n        \n    }\n}",
  "sourcePath": "/home/amiya/Documents/workspace/truffleprojects/fairDemocracyProject/contracts/sketch/BytesToScore.sol",
  "compiler": {
    "name": "solc",
    "version": "0.5.12+commit.7709ece9.Emscripten.clang"
  },
  "schemaVersion": "3.0.20",
  "updatedAt": "2020-03-18T04:27:30.149Z",
  "devdoc": {
    "methods": {}
  },
  "userdoc": {
    "methods": {}
  }
}