{
  "contractName": "CommitRevealElection",
  "abi": [
    {
      "inputs": [
        {
          "internalType": "uint256",
          "name": "_commitPhaseLengthInSeconds",
          "type": "uint256"
        },
        {
          "internalType": "string",
          "name": "_choice1",
          "type": "string"
        },
        {
          "internalType": "string",
          "name": "_choice2",
          "type": "string"
        }
      ],
      "payable": false,
      "stateMutability": "nonpayable",
      "type": "constructor"
    },
    {
      "anonymous": false,
      "inputs": [
        {
          "indexed": false,
          "internalType": "string",
          "name": "",
          "type": "string"
        }
      ],
      "name": "logString",
      "type": "event"
    },
    {
      "anonymous": false,
      "inputs": [
        {
          "indexed": false,
          "internalType": "string",
          "name": "",
          "type": "string"
        },
        {
          "indexed": false,
          "internalType": "bytes32",
          "name": "",
          "type": "bytes32"
        }
      ],
      "name": "newVoteCommit",
      "type": "event"
    },
    {
      "anonymous": false,
      "inputs": [
        {
          "indexed": false,
          "internalType": "string",
          "name": "",
          "type": "string"
        },
        {
          "indexed": false,
          "internalType": "string",
          "name": "",
          "type": "string"
        }
      ],
      "name": "voteWinner",
      "type": "event"
    },
    {
      "constant": true,
      "inputs": [],
      "name": "choice1",
      "outputs": [
        {
          "internalType": "string",
          "name": "",
          "type": "string"
        }
      ],
      "payable": false,
      "stateMutability": "view",
      "type": "function"
    },
    {
      "constant": true,
      "inputs": [],
      "name": "choice2",
      "outputs": [
        {
          "internalType": "string",
          "name": "",
          "type": "string"
        }
      ],
      "payable": false,
      "stateMutability": "view",
      "type": "function"
    },
    {
      "constant": true,
      "inputs": [],
      "name": "commitPhaseEndTime",
      "outputs": [
        {
          "internalType": "uint256",
          "name": "",
          "type": "uint256"
        }
      ],
      "payable": false,
      "stateMutability": "view",
      "type": "function"
    },
    {
      "constant": true,
      "inputs": [],
      "name": "numberOfVotesCast",
      "outputs": [
        {
          "internalType": "uint256",
          "name": "",
          "type": "uint256"
        }
      ],
      "payable": false,
      "stateMutability": "view",
      "type": "function"
    },
    {
      "constant": true,
      "inputs": [
        {
          "internalType": "uint256",
          "name": "",
          "type": "uint256"
        }
      ],
      "name": "voteCommitsHexCode",
      "outputs": [
        {
          "internalType": "bytes32",
          "name": "",
          "type": "bytes32"
        }
      ],
      "payable": false,
      "stateMutability": "view",
      "type": "function"
    },
    {
      "constant": true,
      "inputs": [
        {
          "internalType": "bytes32",
          "name": "",
          "type": "bytes32"
        }
      ],
      "name": "voteStatuses",
      "outputs": [
        {
          "internalType": "string",
          "name": "",
          "type": "string"
        }
      ],
      "payable": false,
      "stateMutability": "view",
      "type": "function"
    },
    {
      "constant": true,
      "inputs": [],
      "name": "votesForChoice1",
      "outputs": [
        {
          "internalType": "uint256",
          "name": "",
          "type": "uint256"
        }
      ],
      "payable": false,
      "stateMutability": "view",
      "type": "function"
    },
    {
      "constant": true,
      "inputs": [],
      "name": "votesForChoice2",
      "outputs": [
        {
          "internalType": "uint256",
          "name": "",
          "type": "uint256"
        }
      ],
      "payable": false,
      "stateMutability": "view",
      "type": "function"
    },
    {
      "constant": false,
      "inputs": [
        {
          "internalType": "bytes32",
          "name": "_voteCommitHexCode",
          "type": "bytes32"
        }
      ],
      "name": "commitVote",
      "outputs": [],
      "payable": false,
      "stateMutability": "nonpayable",
      "type": "function"
    },
    {
      "constant": true,
      "inputs": [
        {
          "internalType": "bytes32",
          "name": "_voteCommitHexCode",
          "type": "bytes32"
        }
      ],
      "name": "getbytesVoteCommit",
      "outputs": [
        {
          "internalType": "bytes",
          "name": "",
          "type": "bytes"
        }
      ],
      "payable": false,
      "stateMutability": "view",
      "type": "function"
    }
  ],
  "bytecode": "0x608060405260006005553480156200001657600080fd5b5060405162000f1d38038062000f1d83398181016040526200003c9190810190620001eb565b6014831162000082576040517f08c379a00000000000000000000000000000000000000000000000000000000081526004016200007990620002db565b60405180910390fd5b6001830242016004819055508160009080519060200190620000a6929190620000c9565b508060019080519060200190620000bf929190620000c9565b50505050620003c3565b828054600181600116156101000203166002900490600052602060002090601f016020900481019282601f106200010c57805160ff19168380011785556200013d565b828001600101855582156200013d579182015b828111156200013c5782518255916020019190600101906200011f565b5b5090506200014c919062000150565b5090565b6200017591905b808211156200017157600081600090555060010162000157565b5090565b90565b600082601f8301126200018a57600080fd5b8151620001a16200019b826200032b565b620002fd565b91508082526020830160208301858383011115620001be57600080fd5b620001cb83828462000373565b50505092915050565b600081519050620001e581620003a9565b92915050565b6000806000606084860312156200020157600080fd5b60006200021186828701620001d4565b935050602084015167ffffffffffffffff8111156200022f57600080fd5b6200023d8682870162000178565b925050604084015167ffffffffffffffff8111156200025b57600080fd5b620002698682870162000178565b9150509250925092565b600062000282602e8362000358565b91507f436f6d6d6974207068617365206c656e6774682063616e2774206265206c657360008301527f73207468616e20323020736563730000000000000000000000000000000000006020830152604082019050919050565b60006020820190508181036000830152620002f68162000273565b9050919050565b6000604051905081810181811067ffffffffffffffff821117156200032157600080fd5b8060405250919050565b600067ffffffffffffffff8211156200034357600080fd5b601f19601f8301169050602081019050919050565b600082825260208201905092915050565b6000819050919050565b60005b838110156200039357808201518184015260208101905062000376565b83811115620003a3576000848401525b50505050565b620003b48162000369565b8114620003c057600080fd5b50565b610b4a80620003d36000396000f3fe608060405234801561001057600080fd5b506004361061009e5760003560e01c806387cfa5bf1161006657806387cfa5bf14610149578063a619350414610167578063baa13bb514610185578063dd0cd740146101a3578063fd5bd01d146101d35761009e565b8063031b6dbf146100a357806322ce9bac146100c15780633e858923146100df57806349e811c5146100fb5780636c31478d14610119575b600080fd5b6100ab610203565b6040516100b89190610a2e565b60405180910390f35b6100c9610209565b6040516100d69190610a2e565b60405180910390f35b6100f960048036036100f491908101906107bf565b61020f565b005b61010361041d565b604051610110919061099e565b60405180910390f35b610133600480360361012e91908101906107bf565b6104bb565b604051610140919061097c565b60405180910390f35b610151610575565b60405161015e919061099e565b60405180910390f35b61016f610613565b60405161017c9190610a2e565b60405180910390f35b61018d610619565b60405161019a9190610a2e565b60405180910390f35b6101bd60048036036101b891908101906107e8565b61061f565b6040516101ca9190610961565b60405180910390f35b6101ed60048036036101e891908101906107bf565b610640565b6040516101fa919061099e565b60405180910390f35b60035481565b60055481565b6004544210610253576040517f08c379a000000000000000000000000000000000000000000000000000000000815260040161024a906109c0565b60405180910390fd5b6060600760008381526020019081526020016000208054600181600116156101000203166002900480601f0160208091040260200160405190810160405280929190818152602001828054600181600116156101000203166002900480156102fc5780601f106102d1576101008083540402835291602001916102fc565b820191906000526020600020905b8154815290600101906020018083116102df57829003601f168201915b505050505090506000815114610347576040517f08c379a000000000000000000000000000000000000000000000000000000000815260040161033e906109e0565b60405180910390fd5b60068290806001815401808255809150509060018203906000526020600020016000909192909190915055506040518060400160405280600981526020017f436f6d6d697474656400000000000000000000000000000000000000000000008152506007600084815260200190815260200160002090805190602001906103cf9291906106f0565b506005600081548092919060010191905055507f651840caa1b0e1c52ec1324c2c0aca317ef17e709f0016630d8739f84c0f3f36826040516104119190610a00565b60405180910390a15050565b60008054600181600116156101000203166002900480601f0160208091040260200160405190810160405280929190818152602001828054600181600116156101000203166002900480156104b35780601f10610488576101008083540402835291602001916104b3565b820191906000526020600020905b81548152906001019060200180831161049657829003601f168201915b505050505081565b606080600760008481526020019081526020016000208054600181600116156101000203166002900480601f0160208091040260200160405190810160405280929190818152602001828054600181600116156101000203166002900480156105655780601f1061053a57610100808354040283529160200191610565565b820191906000526020600020905b81548152906001019060200180831161054857829003601f168201915b5050505050905080915050919050565b60018054600181600116156101000203166002900480601f01602080910402602001604051908101604052809291908181526020018280546001816001161561010002031660029004801561060b5780601f106105e05761010080835404028352916020019161060b565b820191906000526020600020905b8154815290600101906020018083116105ee57829003601f168201915b505050505081565b60045481565b60025481565b6006818154811061062c57fe5b906000526020600020016000915090505481565b60076020528060005260406000206000915090508054600181600116156101000203166002900480601f0160208091040260200160405190810160405280929190818152602001828054600181600116156101000203166002900480156106e85780601f106106bd576101008083540402835291602001916106e8565b820191906000526020600020905b8154815290600101906020018083116106cb57829003601f168201915b505050505081565b828054600181600116156101000203166002900490600052602060002090601f016020900481019282601f1061073157805160ff191683800117855561075f565b8280016001018555821561075f579182015b8281111561075e578251825591602001919060010190610743565b5b50905061076c9190610770565b5090565b61079291905b8082111561078e576000816000905550600101610776565b5090565b90565b6000813590506107a481610ad9565b92915050565b6000813590506107b981610af0565b92915050565b6000602082840312156107d157600080fd5b60006107df84828501610795565b91505092915050565b6000602082840312156107fa57600080fd5b6000610808848285016107aa565b91505092915050565b61081a81610a81565b82525050565b600061082b82610a49565b6108358185610a5f565b9350610845818560208601610a95565b61084e81610ac8565b840191505092915050565b600061086482610a54565b61086e8185610a70565b935061087e818560208601610a95565b61088781610ac8565b840191505092915050565b600061089f601683610a70565b91507f436f6d6d69742070686173652068617320656e646564000000000000000000006000830152602082019050919050565b60006108df601b83610a70565b91507f436f6d6d697420686173206265656e2075736564206265666f726500000000006000830152602082019050919050565b600061091f601b83610a70565b91507f566f746520636f6d6d69746564207769746820746865206861736800000000006000830152602082019050919050565b61095b81610a8b565b82525050565b60006020820190506109766000830184610811565b92915050565b600060208201905081810360008301526109968184610820565b905092915050565b600060208201905081810360008301526109b88184610859565b905092915050565b600060208201905081810360008301526109d981610892565b9050919050565b600060208201905081810360008301526109f9816108d2565b9050919050565b60006040820190508181036000830152610a1981610912565b9050610a286020830184610811565b92915050565b6000602082019050610a436000830184610952565b92915050565b600081519050919050565b600081519050919050565b600082825260208201905092915050565b600082825260208201905092915050565b6000819050919050565b6000819050919050565b60005b83811015610ab3578082015181840152602081019050610a98565b83811115610ac2576000848401525b50505050565b6000601f19601f8301169050919050565b610ae281610a81565b8114610aed57600080fd5b50565b610af981610a8b565b8114610b0457600080fd5b5056fea365627a7a723158202c9be9e0712a6a97162290d76b4b9b9d878cdaca6349ab2eed9b01210c269fd76c6578706572696d656e74616cf564736f6c634300050c0040",
  "source": "pragma solidity >=0.4.22 <0.7.0;\npragma experimental ABIEncoderV2;\n\n// https://karl.tech/learning-solidity-part-2-voting/\n\n// Get the Keccak-256 hash\n// https://emn178.github.io/online-tools/keccak_256.html\n\ncontract CommitRevealElection {\n    \n    string public choice1;\n    string public choice2;\n    \n    \n    uint public votesForChoice1;\n    uint public votesForChoice2;\n    uint public commitPhaseEndTime;\n    uint public numberOfVotesCast = 0;\n    \n    bytes32[] public voteCommitsHexCode;\n    mapping(bytes32 => string) public voteStatuses;\n    \n    event logString(string);\n    event newVoteCommit(string, bytes32);\n    event voteWinner(string, string);\n    \n    \n    constructor(\n        uint _commitPhaseLengthInSeconds,\n        string memory _choice1,\n        string memory _choice2\n        ) public { \n            require(_commitPhaseLengthInSeconds > 20, \"Commit phase length can't be less than 20 secs\");\n            commitPhaseEndTime = now + _commitPhaseLengthInSeconds * 1 seconds;\n            choice1 = _choice1;\n            choice2 = _choice2;\n    }\n    \n    \n    function commitVote(bytes32 _voteCommitHexCode) external {\n        require(now < commitPhaseEndTime, \"Commit phase has ended\");\n        \n        bytes memory bytesVoteStatus = bytes(voteStatuses[_voteCommitHexCode]);\n        require(bytesVoteStatus.length == 0, \"Commit has been used before\");\n        \n        voteCommitsHexCode.push(_voteCommitHexCode);\n        voteStatuses[_voteCommitHexCode] = \"Committed\";\n        numberOfVotesCast++;\n        emit newVoteCommit(\"Vote commited with the hash\", _voteCommitHexCode);\n    }\n        \n   \n//   function getLength(bytes32 _voteCommitHexCode) external view returns (uint) {\n//         bytes memory bytesVoteCommit = bytes(voteStatuses[_voteCommitHexCode]);\n//         return bytesVoteCommit.length;\n       \n//   }\n\n\n    // function revealVote(string calldata _vote, bytes32 _voteCommitHexCode) external {\n        \n    //     require(now > commitPhaseEndTime, \"Commit phase end time has not ended yet. Please wait\");\n        \n    //     bytes memory bytesVoteStatus = bytes(voteStatuses[_voteCommitHexCode]);\n        \n    //     require(bytesVoteStatus.length != 0, \"This vote commit hex code is not present\");\n        \n        \n        \n    // }\n    \n      function getbytesVoteCommit(bytes32 _voteCommitHexCode) external view returns (bytes memory) {\n        bytes memory bytesVoteCommit = bytes(voteStatuses[_voteCommitHexCode]);\n        return bytesVoteCommit;\n       \n  }\n    \n    \n    \n}\n    \n",
  "sourcePath": "/home/amiya/Documents/workspace/truffleprojects/fairDemocracyProject/contracts/sketch/CommitAndReveal.sol",
  "compiler": {
    "name": "solc",
    "version": "0.5.12+commit.7709ece9.Emscripten.clang"
  },
  "schemaVersion": "3.0.20",
  "updatedAt": "2020-03-18T04:27:30.151Z",
  "devdoc": {
    "methods": {}
  },
  "userdoc": {
    "methods": {}
  }
}