{
  "contractName": "ScoreBallot",
  "abi": [
    {
      "anonymous": false,
      "inputs": [
        {
          "indexed": true,
          "internalType": "address",
          "name": "previousOwner",
          "type": "address"
        },
        {
          "indexed": true,
          "internalType": "address",
          "name": "newOwner",
          "type": "address"
        }
      ],
      "name": "OwnershipTransferred",
      "type": "event"
    },
    {
      "constant": true,
      "inputs": [],
      "name": "commitPhaseLengthInSeconds",
      "outputs": [
        {
          "internalType": "uint256",
          "name": "",
          "type": "uint256"
        }
      ],
      "payable": false,
      "stateMutability": "view",
      "type": "function"
    },
    {
      "constant": true,
      "inputs": [],
      "name": "isOwner",
      "outputs": [
        {
          "internalType": "bool",
          "name": "",
          "type": "bool"
        }
      ],
      "payable": false,
      "stateMutability": "view",
      "type": "function"
    },
    {
      "constant": true,
      "inputs": [],
      "name": "owner",
      "outputs": [
        {
          "internalType": "address",
          "name": "",
          "type": "address"
        }
      ],
      "payable": false,
      "stateMutability": "view",
      "type": "function"
    },
    {
      "constant": false,
      "inputs": [],
      "name": "renounceOwnership",
      "outputs": [],
      "payable": false,
      "stateMutability": "nonpayable",
      "type": "function"
    },
    {
      "constant": false,
      "inputs": [
        {
          "internalType": "address",
          "name": "newOwner",
          "type": "address"
        }
      ],
      "name": "transferOwnership",
      "outputs": [],
      "payable": false,
      "stateMutability": "nonpayable",
      "type": "function"
    },
    {
      "constant": false,
      "inputs": [
        {
          "internalType": "uint256",
          "name": "_commitPhaseLengthInSeconds",
          "type": "uint256"
        }
      ],
      "name": "setCommitPhaseLengthInSeconds",
      "outputs": [],
      "payable": false,
      "stateMutability": "nonpayable",
      "type": "function"
    }
  ],
  "bytecode": "0x608060405260006100146100b760201b60201c565b9050806000806101000a81548173ffffffffffffffffffffffffffffffffffffffff021916908373ffffffffffffffffffffffffffffffffffffffff1602179055508073ffffffffffffffffffffffffffffffffffffffff16600073ffffffffffffffffffffffffffffffffffffffff167f8be0079c531659141344cd1fd0a4f28419497f9722a3daafe3b4186f6b6457e060405160405180910390a3506100bf565b600033905090565b61071a806100ce6000396000f3fe608060405234801561001057600080fd5b50600436106100625760003560e01c80634a4613a3146100675780634bb7e87314610085578063715018a6146100a15780638da5cb5b146100ab5780638f32d59b146100c9578063f2fde38b146100e7575b600080fd5b61006f610103565b60405161007c9190610635565b60405180910390f35b61009f600480360361009a91908101906104c3565b610109565b005b6100a961015a565b005b6100b3610260565b6040516100c091906105bf565b60405180910390f35b6100d1610289565b6040516100de91906105da565b60405180910390f35b61010160048036036100fc919081019061049a565b6102e7565b005b60015481565b610111610289565b610150576040517f08c379a000000000000000000000000000000000000000000000000000000000815260040161014790610615565b60405180910390fd5b8060018190555050565b610162610289565b6101a1576040517f08c379a000000000000000000000000000000000000000000000000000000000815260040161019890610615565b60405180910390fd5b600073ffffffffffffffffffffffffffffffffffffffff166000809054906101000a900473ffffffffffffffffffffffffffffffffffffffff1673ffffffffffffffffffffffffffffffffffffffff167f8be0079c531659141344cd1fd0a4f28419497f9722a3daafe3b4186f6b6457e060405160405180910390a360008060006101000a81548173ffffffffffffffffffffffffffffffffffffffff021916908373ffffffffffffffffffffffffffffffffffffffff160217905550565b60008060009054906101000a900473ffffffffffffffffffffffffffffffffffffffff16905090565b60008060009054906101000a900473ffffffffffffffffffffffffffffffffffffffff1673ffffffffffffffffffffffffffffffffffffffff166102cb61033a565b73ffffffffffffffffffffffffffffffffffffffff1614905090565b6102ef610289565b61032e576040517f08c379a000000000000000000000000000000000000000000000000000000000815260040161032590610615565b60405180910390fd5b61033781610342565b50565b600033905090565b600073ffffffffffffffffffffffffffffffffffffffff168173ffffffffffffffffffffffffffffffffffffffff1614156103b2576040517f08c379a00000000000000000000000000000000000000000000000000000000081526004016103a9906105f5565b60405180910390fd5b8073ffffffffffffffffffffffffffffffffffffffff166000809054906101000a900473ffffffffffffffffffffffffffffffffffffffff1673ffffffffffffffffffffffffffffffffffffffff167f8be0079c531659141344cd1fd0a4f28419497f9722a3daafe3b4186f6b6457e060405160405180910390a3806000806101000a81548173ffffffffffffffffffffffffffffffffffffffff021916908373ffffffffffffffffffffffffffffffffffffffff16021790555050565b60008135905061047f816106a9565b92915050565b600081359050610494816106c0565b92915050565b6000602082840312156104ac57600080fd5b60006104ba84828501610470565b91505092915050565b6000602082840312156104d557600080fd5b60006104e384828501610485565b91505092915050565b6104f581610661565b82525050565b61050481610673565b82525050565b6000610517602683610650565b91507f4f776e61626c653a206e6577206f776e657220697320746865207a65726f206160008301527f64647265737300000000000000000000000000000000000000000000000000006020830152604082019050919050565b600061057d602083610650565b91507f4f776e61626c653a2063616c6c6572206973206e6f7420746865206f776e65726000830152602082019050919050565b6105b98161069f565b82525050565b60006020820190506105d460008301846104ec565b92915050565b60006020820190506105ef60008301846104fb565b92915050565b6000602082019050818103600083015261060e8161050a565b9050919050565b6000602082019050818103600083015261062e81610570565b9050919050565b600060208201905061064a60008301846105b0565b92915050565b600082825260208201905092915050565b600061066c8261067f565b9050919050565b60008115159050919050565b600073ffffffffffffffffffffffffffffffffffffffff82169050919050565b6000819050919050565b6106b281610661565b81146106bd57600080fd5b50565b6106c98161069f565b81146106d457600080fd5b5056fea365627a7a72315820e73423e0d7515376e1d39db59d36c0dd03da373e78def6ce3f74309e977aedf06c6578706572696d656e74616cf564736f6c634300050c0040",
  "source": "pragma solidity >=0.4.22 <0.7.0;\npragma experimental ABIEncoderV2;\nimport \"@openzeppelin/contracts/math/SafeMath.sol\";\nimport \"@openzeppelin/contracts/ownership/Ownable.sol\";\nimport \"./libraries/SafeMath8.sol\";\nimport \"./libraries/SafeMath32.sol\";\n\n\n// Commit and Reveal Score voting\n// Voting session per subdeparment code\n        // Add the department code to constructor?? Really?? Is this currect way??\n// Whitelisting voters\n// Whitelisting nominee\n// Time the voting starts // Every 6 months\n// Time the voting ends // Voting process takes one month, 7 days revealing time included\n\n\ncontract ScoreBallot is Ownable {\n\n    using SafeMath for uint;\n    using SafeMath32 for uint32;\n    using SafeMath8 for uint8;\n\n    uint public commitPhaseLengthInSeconds;\n\n    struct DepartmentRepresentatives {\n        uint32 totalScore; // Total votes got in score voting\n        bytes32 name;\n        address representativesAddress; // Address of the nominees in the election\n    }\n\n    struct Poll {\n        uint32 _commitPhaseLengthInSeconds;\n        bytes32 departmentCode;\n        uint votingCycle; // 1,2,3 etc every time voting takes place\n    }\n\n    struct voter {\n        address voterAddress; // Address of the voter\n        bool canVote; // If true, the voter can vote\n        bool voted; // if true, the person already voted\n        bytes32 departmentCode; // Code of the department\n    }\n\n    function setCommitPhaseLengthInSeconds(uint _commitPhaseLengthInSeconds) external onlyOwner {\n        commitPhaseLengthInSeconds = _commitPhaseLengthInSeconds;\n    }\n\n}",
  "sourcePath": "/home/amiya/Documents/workspace/truffleprojects/fairDemocracyProject/contracts/ScoreBallot.sol",
  "compiler": {
    "name": "solc",
    "version": "0.5.12+commit.7709ece9.Emscripten.clang"
  },
  "schemaVersion": "3.0.20",
  "updatedAt": "2020-03-19T08:14:37.392Z",
  "devdoc": {
    "methods": {
      "isOwner()": {
        "details": "Returns true if the caller is the current owner."
      },
      "owner()": {
        "details": "Returns the address of the current owner."
      },
      "renounceOwnership()": {
        "details": "Leaves the contract without owner. It will not be possible to call `onlyOwner` functions anymore. Can only be called by the current owner.     * NOTE: Renouncing ownership will leave the contract without an owner, thereby removing any functionality that is only available to the owner."
      },
      "transferOwnership(address)": {
        "details": "Transfers ownership of the contract to a new account (`newOwner`). Can only be called by the current owner."
      }
    }
  },
  "userdoc": {
    "methods": {}
  }
}